:0600000002000602006E82
:10005F0002006212009580FE438E0C90000022C0B9
:10006F00E0C082C083C0D075D008900004E0FAA32E
:10007F00E0FB90000474012AF0E43BA3F0D0D0D051
:10008F0083D082D0E03243D90275FA4C75EA4C75B1
:10009F00D84012019E90023F75F0801201CD900260
:1000AF005875F0801201CD1201C3AA82C00212014D
:1000BF00B1D002BA7714C002120187D00290029B0E
:1000CF0075F080C0021201CDD002BA70D19002B388
:1000DF0075F0801201CD900004E4F0A3F01201C37B
:1000EF00AA82C0021201B1D002BA31057597FF8002
:1000FF00037597009002F175F0801201CD1201C3C4
:10010F00AA82C0021201B1D00275E90075F900BAD6
:10011F00310543DA42800375DA4090032D75F08084
:10012F001201CD1201C3AA82C0021201B1D002BACC
:10013F00312390036775F0801201CD43A881D2A8B7
:10014F00D2AF438701900004E0FAA3E0FB4A6003BB
:10015F000200AD80F09003AD75F0801201CD43A881
:10016F0081D2A8D2AF438702900004E0FAA3E0FB4C
:10017F004A60030200AD80F0C2DE75F90075E90038
:10018F0075FEFF75EEFF75DE4843D940D2DE224380
:10019F008920758DFD439850D28E43A881C298D285
:1001AF009922E582900000F03099FD900000E0F573
:1001BF0099C2992210980280FBAA998A8222AAF0EA
:1001CF00AB83E582900001F0A3EBF0A3EAF090007F
:1001DF0001E0FAA3E0FBA3E0FC8A828B838CF01290
:1001EF000223FD60238D82C002C003C0041201B13F
:1001FF00D004D003D0020ABA00010B900001EAF03C
:10020F00A3EBF0A3ECF080D1900001EAF0A3EBF0A8
:04021F00A3ECF0223A
:10023F000A0D2046726F6D207468652042656769EC
:10024F006E6E696E67200A0D000A0D656E74657219
:10025F00207720666F72207761746368646F672000
:10026F0074696D657220616369766520616E6420C3
:10027F007020666F722070776D206F757470757453
:10028F002066726F6D207063610A0D000A0D206683
:10029F00726F6D2074686520626567696E6E696E36
:1002AF00670A0D000A0D706C656173652063686FD6
:1002BF006F736520746F2072756E206F6E206D697D
:1002CF006E203A20283029206F72206D6178203AF5
:1002DF0020283129206672657175656E6379200A51
:1002EF000D000A0D20706C656173652063686F6F78
:1002FF00736520746F207475726E206F6E203A20B4
:10030F00283129206F72206F6666203A2028302905
:10031F002050574D206F75747075740A0D000A0DBB
:10032F00656E746572203120746F20676F20696E5F
:10033F00746F2069646C65206D6F6465206F722027
:10034F003220666F7220706F77657220646F776EE0
:10035F00206D6F64650A0D000A0D496E2069646C8B
:10036F0065206D6F64652063757272656E746C794C
:10037F00203A2070726F76696465206578746572B3
:10038F006E616C20696E7465727275707420746F13
:10039F00207465726D696E617465200A0D000A0D17
:1003AF00496E20706F77657220646F776E206D6F66
:1003BF006465203A70726F7669646520657874653C
:1003CF00726E616C20696E746572727570742074D0
:1003DF006F207465726D696E6174650A0D0000009F
:06003500E478FFF6D8FD9F
:100013007902E94400601B7A019003ED780475A02E
:1000230000E493F2A308B8000205A0D9F4DAF2754C
:02003300A0FF2C
:10003B007800E84400600A790075A000E4F309D861
:10004B00FC7804E84400600C7901900000E4F0A314
:04005B00D8FCD9FAFA
:0D00060075810F120067E582600302006241
:1002230020F71430F6148883A88220F507E6A88304
:0C02330075830022E280F7E49322E022B1
:00000001FF
